{
  "contractName": "HealthRecord",
  "abi": [
    {
      "anonymous": false,
      "inputs": [
        {
          "indexed": true,
          "internalType": "uint256",
          "name": "patientId",
          "type": "uint256"
        },
        {
          "indexed": true,
          "internalType": "uint256",
          "name": "doctorId",
          "type": "uint256"
        },
        {
          "indexed": false,
          "internalType": "bool",
          "name": "consent",
          "type": "bool"
        }
      ],
      "name": "ConsentGiven",
      "type": "event"
    },
    {
      "anonymous": false,
      "inputs": [
        {
          "indexed": true,
          "internalType": "uint256",
          "name": "doctorId",
          "type": "uint256"
        }
      ],
      "name": "DoctorAssigned",
      "type": "event"
    },
    {
      "anonymous": false,
      "inputs": [
        {
          "indexed": true,
          "internalType": "uint256",
          "name": "doctorId",
          "type": "uint256"
        }
      ],
      "name": "DoctorRemoved",
      "type": "event"
    },
    {
      "anonymous": false,
      "inputs": [
        {
          "indexed": true,
          "internalType": "uint256",
          "name": "patientId",
          "type": "uint256"
        }
      ],
      "name": "PatientRegistered",
      "type": "event"
    },
    {
      "anonymous": false,
      "inputs": [
        {
          "indexed": true,
          "internalType": "uint256",
          "name": "patientId",
          "type": "uint256"
        }
      ],
      "name": "PatientRemoved",
      "type": "event"
    },
    {
      "anonymous": false,
      "inputs": [
        {
          "indexed": true,
          "internalType": "uint256",
          "name": "patientId",
          "type": "uint256"
        },
        {
          "indexed": true,
          "internalType": "uint256",
          "name": "doctorId",
          "type": "uint256"
        },
        {
          "indexed": false,
          "internalType": "uint256",
          "name": "rating",
          "type": "uint256"
        }
      ],
      "name": "RatingGiven",
      "type": "event"
    },
    {
      "anonymous": false,
      "inputs": [
        {
          "indexed": true,
          "internalType": "uint256",
          "name": "patientId",
          "type": "uint256"
        },
        {
          "indexed": true,
          "internalType": "uint256",
          "name": "doctorId",
          "type": "uint256"
        },
        {
          "indexed": false,
          "internalType": "uint256",
          "name": "oldRating",
          "type": "uint256"
        },
        {
          "indexed": false,
          "internalType": "uint256",
          "name": "newRating",
          "type": "uint256"
        }
      ],
      "name": "RatingUpdated",
      "type": "event"
    },
    {
      "anonymous": false,
      "inputs": [
        {
          "indexed": true,
          "internalType": "uint256",
          "name": "doctorId",
          "type": "uint256"
        },
        {
          "indexed": true,
          "internalType": "uint256",
          "name": "patientId",
          "type": "uint256"
        }
      ],
      "name": "RecordAdded",
      "type": "event"
    },
    {
      "anonymous": false,
      "inputs": [
        {
          "indexed": true,
          "internalType": "uint256",
          "name": "doctorId",
          "type": "uint256"
        },
        {
          "indexed": true,
          "internalType": "uint256",
          "name": "patientId",
          "type": "uint256"
        },
        {
          "indexed": false,
          "internalType": "uint256",
          "name": "index",
          "type": "uint256"
        }
      ],
      "name": "RecordUpdated",
      "type": "event"
    },
    {
      "anonymous": false,
      "inputs": [
        {
          "indexed": true,
          "internalType": "uint256",
          "name": "patientId",
          "type": "uint256"
        },
        {
          "indexed": true,
          "internalType": "uint256",
          "name": "doctorId",
          "type": "uint256"
        },
        {
          "indexed": false,
          "internalType": "uint256",
          "name": "index",
          "type": "uint256"
        },
        {
          "indexed": false,
          "internalType": "bool",
          "name": "isVisible",
          "type": "bool"
        }
      ],
      "name": "RecordVisibilityChanged",
      "type": "event"
    },
    {
      "inputs": [
        {
          "internalType": "address",
          "name": "",
          "type": "address"
        }
      ],
      "name": "doctorAddresses",
      "outputs": [
        {
          "internalType": "uint256",
          "name": "",
          "type": "uint256"
        }
      ],
      "stateMutability": "view",
      "type": "function",
      "constant": true
    },
    {
      "inputs": [
        {
          "internalType": "uint256",
          "name": "",
          "type": "uint256"
        }
      ],
      "name": "doctors",
      "outputs": [
        {
          "internalType": "uint256",
          "name": "doctorId",
          "type": "uint256"
        },
        {
          "internalType": "bool",
          "name": "isRegistered",
          "type": "bool"
        }
      ],
      "stateMutability": "view",
      "type": "function",
      "constant": true
    },
    {
      "inputs": [
        {
          "internalType": "address",
          "name": "",
          "type": "address"
        }
      ],
      "name": "patientAddresses",
      "outputs": [
        {
          "internalType": "uint256",
          "name": "",
          "type": "uint256"
        }
      ],
      "stateMutability": "view",
      "type": "function",
      "constant": true
    },
    {
      "inputs": [
        {
          "internalType": "uint256",
          "name": "",
          "type": "uint256"
        }
      ],
      "name": "patients",
      "outputs": [
        {
          "internalType": "uint256",
          "name": "patientId",
          "type": "uint256"
        },
        {
          "internalType": "bool",
          "name": "isRegistered",
          "type": "bool"
        }
      ],
      "stateMutability": "view",
      "type": "function",
      "constant": true
    },
    {
      "inputs": [
        {
          "internalType": "uint256",
          "name": "patientId",
          "type": "uint256"
        }
      ],
      "name": "registerPatient",
      "outputs": [],
      "stateMutability": "nonpayable",
      "type": "function"
    },
    {
      "inputs": [
        {
          "internalType": "uint256",
          "name": "doctorId",
          "type": "uint256"
        }
      ],
      "name": "registerDoctor",
      "outputs": [],
      "stateMutability": "nonpayable",
      "type": "function"
    },
    {
      "inputs": [
        {
          "internalType": "uint256",
          "name": "patientId",
          "type": "uint256"
        },
        {
          "internalType": "uint256",
          "name": "doctorId",
          "type": "uint256"
        },
        {
          "internalType": "bool",
          "name": "consent",
          "type": "bool"
        }
      ],
      "name": "giveConsent",
      "outputs": [],
      "stateMutability": "nonpayable",
      "type": "function"
    },
    {
      "inputs": [
        {
          "internalType": "uint256",
          "name": "patientId",
          "type": "uint256"
        },
        {
          "internalType": "uint256",
          "name": "doctorId",
          "type": "uint256"
        }
      ],
      "name": "hasGivenConsent",
      "outputs": [
        {
          "internalType": "bool",
          "name": "",
          "type": "bool"
        }
      ],
      "stateMutability": "view",
      "type": "function",
      "constant": true
    },
    {
      "inputs": [
        {
          "internalType": "uint256",
          "name": "patientId",
          "type": "uint256"
        },
        {
          "internalType": "uint256",
          "name": "doctorId",
          "type": "uint256"
        },
        {
          "internalType": "uint256",
          "name": "rating",
          "type": "uint256"
        }
      ],
      "name": "giveRating",
      "outputs": [],
      "stateMutability": "nonpayable",
      "type": "function"
    },
    {
      "inputs": [
        {
          "internalType": "uint256",
          "name": "doctorId",
          "type": "uint256"
        }
      ],
      "name": "getMyRating",
      "outputs": [
        {
          "internalType": "uint256",
          "name": "",
          "type": "uint256"
        }
      ],
      "stateMutability": "view",
      "type": "function",
      "constant": true
    },
    {
      "inputs": [
        {
          "internalType": "uint256",
          "name": "doctorId",
          "type": "uint256"
        }
      ],
      "name": "getDoctorRating",
      "outputs": [
        {
          "internalType": "uint256",
          "name": "average",
          "type": "uint256"
        }
      ],
      "stateMutability": "view",
      "type": "function",
      "constant": true
    },
    {
      "inputs": [
        {
          "internalType": "uint256",
          "name": "patientId",
          "type": "uint256"
        },
        {
          "internalType": "uint256",
          "name": "doctorId",
          "type": "uint256"
        },
        {
          "internalType": "string",
          "name": "data",
          "type": "string"
        }
      ],
      "name": "addRecord",
      "outputs": [],
      "stateMutability": "nonpayable",
      "type": "function"
    },
    {
      "inputs": [
        {
          "internalType": "uint256",
          "name": "patientId",
          "type": "uint256"
        },
        {
          "internalType": "uint256",
          "name": "doctorId",
          "type": "uint256"
        },
        {
          "internalType": "uint256",
          "name": "index",
          "type": "uint256"
        },
        {
          "internalType": "string",
          "name": "data",
          "type": "string"
        }
      ],
      "name": "updateRecord",
      "outputs": [],
      "stateMutability": "nonpayable",
      "type": "function"
    },
    {
      "inputs": [
        {
          "internalType": "uint256",
          "name": "patientId",
          "type": "uint256"
        },
        {
          "internalType": "uint256",
          "name": "doctorId",
          "type": "uint256"
        },
        {
          "internalType": "uint256",
          "name": "index",
          "type": "uint256"
        },
        {
          "internalType": "bool",
          "name": "visible",
          "type": "bool"
        }
      ],
      "name": "toggleRecordVisibility",
      "outputs": [],
      "stateMutability": "nonpayable",
      "type": "function"
    },
    {
      "inputs": [
        {
          "internalType": "uint256",
          "name": "patientId",
          "type": "uint256"
        },
        {
          "internalType": "uint256",
          "name": "doctorId",
          "type": "uint256"
        }
      ],
      "name": "getRecords",
      "outputs": [
        {
          "components": [
            {
              "internalType": "uint256",
              "name": "patientId",
              "type": "uint256"
            },
            {
              "internalType": "string",
              "name": "data",
              "type": "string"
            },
            {
              "internalType": "address",
              "name": "addedBy",
              "type": "address"
            },
            {
              "internalType": "uint256",
              "name": "timestamp",
              "type": "uint256"
            },
            {
              "internalType": "bool",
              "name": "isVisible",
              "type": "bool"
            }
          ],
          "internalType": "struct HealthRecord.Record[]",
          "name": "",
          "type": "tuple[]"
        }
      ],
      "stateMutability": "view",
      "type": "function",
      "constant": true
    },
    {
      "inputs": [
        {
          "internalType": "uint256",
          "name": "patientId",
          "type": "uint256"
        }
      ],
      "name": "getMyRecords",
      "outputs": [
        {
          "components": [
            {
              "internalType": "uint256",
              "name": "patientId",
              "type": "uint256"
            },
            {
              "internalType": "string",
              "name": "data",
              "type": "string"
            },
            {
              "internalType": "address",
              "name": "addedBy",
              "type": "address"
            },
            {
              "internalType": "uint256",
              "name": "timestamp",
              "type": "uint256"
            },
            {
              "internalType": "bool",
              "name": "isVisible",
              "type": "bool"
            }
          ],
          "internalType": "struct HealthRecord.Record[]",
          "name": "",
          "type": "tuple[]"
        }
      ],
      "stateMutability": "view",
      "type": "function",
      "constant": true
    },
    {
      "inputs": [
        {
          "internalType": "uint256",
          "name": "patientId",
          "type": "uint256"
        },
        {
          "internalType": "uint256",
          "name": "doctorId",
          "type": "uint256"
        },
        {
          "internalType": "uint256",
          "name": "start",
          "type": "uint256"
        },
        {
          "internalType": "uint256",
          "name": "limit",
          "type": "uint256"
        }
      ],
      "name": "getRecordsPaginated",
      "outputs": [
        {
          "components": [
            {
              "internalType": "uint256",
              "name": "patientId",
              "type": "uint256"
            },
            {
              "internalType": "string",
              "name": "data",
              "type": "string"
            },
            {
              "internalType": "address",
              "name": "addedBy",
              "type": "address"
            },
            {
              "internalType": "uint256",
              "name": "timestamp",
              "type": "uint256"
            },
            {
              "internalType": "bool",
              "name": "isVisible",
              "type": "bool"
            }
          ],
          "internalType": "struct HealthRecord.Record[]",
          "name": "",
          "type": "tuple[]"
        }
      ],
      "stateMutability": "view",
      "type": "function",
      "constant": true
    }
  ],
  "bytecode": "0x608060405234801561001057600080fd5b506135c2806100206000396000f3fe608060405234801561001057600080fd5b506004361061010b5760003560e01c80638959ed2d116100a2578063d3b1f0d711610071578063d3b1f0d7146102ee578063d4ddaeca1461030a578063daf219101461033a578063e09ac6ac1461036a578063f7a2d9781461039a5761010b565b80638959ed2d1461025557806393119a8314610271578063a0569b57146102a2578063bda19167146102d25761010b565b806368f5e10d116100de57806368f5e10d146101a8578063692a12f1146101d85780636efb1b841461020857806386c85619146102395761010b565b80632fac2e0914610110578063325692691461012c57806359d319a21461015c5780636395a2511461018c575b600080fd5b61012a60048036038101906101259190612407565b6103b6565b005b6101466004803603810190610141919061248a565b61066e565b6040516101539190612713565b60405180910390f35b61017660048036038101906101719190612761565b610a45565b604051610183919061279d565b60405180910390f35b6101a660048036038101906101a191906127b8565b610a5d565b005b6101c260048036038101906101bd91906127b8565b610c28565b6040516101cf919061279d565b60405180910390f35b6101f260048036038101906101ed9190612761565b610d24565b6040516101ff919061279d565b60405180910390f35b610222600480360381019061021d91906127b8565b610d3c565b6040516102309291906127f4565b60405180910390f35b610253600480360381019061024e91906127b8565b610d6d565b005b61026f600480360381019061026a919061281d565b610f39565b005b61028b600480360381019061028691906127b8565b6111b2565b6040516102999291906127f4565b60405180910390f35b6102bc60048036038101906102b7919061288c565b6111e3565b6040516102c99190612713565b60405180910390f35b6102ec60048036038101906102e791906128f8565b61170d565b005b6103086004803603810190610303919061294b565b6118d2565b005b610324600480360381019061031f91906127b8565b611b3c565b6040516103319190612713565b60405180910390f35b610354600480360381019061034f919061288c565b611dae565b60405161036191906129b2565b60405180910390f35b610384600480360381019061037f91906127b8565b611ded565b604051610391919061279d565b60405180910390f35b6103b460048036038101906103af91906129cd565b611ee4565b005b8280600260003373ffffffffffffffffffffffffffffffffffffffff1673ffffffffffffffffffffffffffffffffffffffff1681526020019081526020016000205414610438576040517f08c379a000000000000000000000000000000000000000000000000000000000815260040161042f90612a7d565b60405180910390fd5b60008082815260200190815260200160002060010160009054906101000a900460ff1661049a576040517f08c379a000000000000000000000000000000000000000000000000000000000815260040161049190612ae9565b60405180910390fd5b600160008681526020019081526020016000206004018054905083106104f5576040517f08c379a00000000000000000000000000000000000000000000000000000000081526004016104ec90612b55565b60405180910390fd5b600060016000878152602001908152602001600020600401848154811061051f5761051e612b75565b5b906000526020600020906005020190503373ffffffffffffffffffffffffffffffffffffffff168160020160009054906101000a900473ffffffffffffffffffffffffffffffffffffffff1673ffffffffffffffffffffffffffffffffffffffff16146105c1576040517f08c379a00000000000000000000000000000000000000000000000000000000081526004016105b890612bf0565b60405180910390fd5b8060040160009054906101000a900460ff16610612576040517f08c379a000000000000000000000000000000000000000000000000000000000815260040161060990612c5c565b60405180910390fd5b828160010190816106239190612e88565b5042816003018190555085857f05cdc323f67bbb6f92fe5df2d12590c3a4f836c7c71f0d013f530ceddeed37558660405161065e919061279d565b60405180910390a3505050505050565b606060008085815260200190815260200160002060010160009054906101000a900460ff166106d2576040517f08c379a00000000000000000000000000000000000000000000000000000000081526004016106c990612ae9565b60405180910390fd5b6106dc8585611dae565b61071b576040517f08c379a000000000000000000000000000000000000000000000000000000000815260040161071290612fa6565b60405180910390fd5b60006001600087815260200190815260200160002060040190508080549050841061077b576040517f08c379a000000000000000000000000000000000000000000000000000000000815260040161077290613012565b60405180910390fd5b60008180549050848661078e9190613061565b116107a457838561079f9190613061565b6107aa565b81805490505b90506000808690505b82811015610814578381815481106107ce576107cd612b75565b5b906000526020600020906005020160040160009054906101000a900460ff16156108015781806107fd90613095565b9250505b808061080c90613095565b9150506107b3565b5060008167ffffffffffffffff811115610831576108306122dc565b5b60405190808252806020026020018201604052801561086a57816020015b610857612230565b81526020019060019003908161084f5790505b5090506000808890505b84811015610a345785818154811061088f5761088e612b75565b5b906000526020600020906005020160040160009054906101000a900460ff1615610a21578581815481106108c6576108c5612b75565b5b90600052602060002090600502016040518060a0016040529081600082015481526020016001820180546108f990612cab565b80601f016020809104026020016040519081016040528092919081815260200182805461092590612cab565b80156109725780601f1061094757610100808354040283529160200191610972565b820191906000526020600020905b81548152906001019060200180831161095557829003601f168201915b505050505081526020016002820160009054906101000a900473ffffffffffffffffffffffffffffffffffffffff1673ffffffffffffffffffffffffffffffffffffffff1673ffffffffffffffffffffffffffffffffffffffff168152602001600382015481526020016004820160009054906101000a900460ff161515151581525050838380610a0290613095565b945081518110610a1557610a14612b75565b5b60200260200101819052505b8080610a2c90613095565b915050610874565b508195505050505050949350505050565b60026020528060005260406000206000915090505481565b6000600260003373ffffffffffffffffffffffffffffffffffffffff1673ffffffffffffffffffffffffffffffffffffffff1681526020019081526020016000205414610adf576040517f08c379a0000000000000000000000000000000000000000000000000000000008152600401610ad690613129565b60405180910390fd5b6004600082815260200190815260200160002060009054906101000a900460ff1615610b40576040517f08c379a0000000000000000000000000000000000000000000000000000000008152600401610b3790613195565b60405180910390fd5b8060008083815260200190815260200160002060000181905550600160008083815260200190815260200160002060010160006101000a81548160ff02191690831515021790555080600260003373ffffffffffffffffffffffffffffffffffffffff1673ffffffffffffffffffffffffffffffffffffffff1681526020019081526020016000208190555060016004600083815260200190815260200160002060006101000a81548160ff021916908315150217905550807f880093f732c11d9f87a5fa51289a6d851bb9fd0f8b1f684d8881be2e8593212160405160405180910390a250565b600080600083815260200190815260200160002060010160009054906101000a900460ff16610c8c576040517f08c379a0000000000000000000000000000000000000000000000000000000008152600401610c8390612ae9565b60405180910390fd5b600080600084815260200190815260200160002060030190506000818054905003610cbb576000915050610d1f565b6000805b8280549050811015610d0957828181548110610cde57610cdd612b75565b5b906000526020600020015482610cf49190613061565b91508080610d0190613095565b915050610cbf565b50818054905081610d1a91906131e4565b925050505b919050565b60036020528060005260406000206000915090505481565b60006020528060005260406000206000915090508060000154908060010160009054906101000a900460ff16905082565b6000600360003373ffffffffffffffffffffffffffffffffffffffff1673ffffffffffffffffffffffffffffffffffffffff1681526020019081526020016000205414610def576040517f08c379a0000000000000000000000000000000000000000000000000000000008152600401610de690613261565b60405180910390fd5b6005600082815260200190815260200160002060009054906101000a900460ff1615610e50576040517f08c379a0000000000000000000000000000000000000000000000000000000008152600401610e47906132cd565b60405180910390fd5b806001600083815260200190815260200160002060000181905550600180600083815260200190815260200160002060010160006101000a81548160ff02191690831515021790555080600360003373ffffffffffffffffffffffffffffffffffffffff1673ffffffffffffffffffffffffffffffffffffffff1681526020019081526020016000208190555060016005600083815260200190815260200160002060006101000a81548160ff021916908315150217905550807f4c5da917c89b368a7c58084e36d80fc37bc7af94d1c6e5fdab59d8c19b9858d960405160405180910390a250565b8180600260003373ffffffffffffffffffffffffffffffffffffffff1673ffffffffffffffffffffffffffffffffffffffff1681526020019081526020016000205414610fbb576040517f08c379a0000000000000000000000000000000000000000000000000000000008152600401610fb290612a7d565b60405180910390fd5b60008082815260200190815260200160002060010160009054906101000a900460ff1661101d576040517f08c379a000000000000000000000000000000000000000000000000000000000815260040161101490612ae9565b60405180910390fd5b6110278484611dae565b611066576040517f08c379a000000000000000000000000000000000000000000000000000000000815260040161105d90612fa6565b60405180910390fd5b60006040518060a001604052808681526020018481526020013373ffffffffffffffffffffffffffffffffffffffff168152602001428152602001600115158152509050600160008681526020019081526020016000206004018190806001815401808255809150506001900390600052602060002090600502016000909190919091506000820151816000015560208201518160010190816111099190612e88565b5060408201518160020160006101000a81548173ffffffffffffffffffffffffffffffffffffffff021916908373ffffffffffffffffffffffffffffffffffffffff1602179055506060820151816003015560808201518160040160006101000a81548160ff021916908315150217905550505084847f994d2ae9a63407bd73769c2b92e18e641715abcf189c425d8532c3d7254b7f1860405160405180910390a35050505050565b60016020528060005260406000206000915090508060000154908060010160009054906101000a900460ff16905082565b6060600083600360003373ffffffffffffffffffffffffffffffffffffffff1673ffffffffffffffffffffffffffffffffffffffff16815260200190815260200160002054149050806112dc5760008084815260200190815260200160002060010160009054906101000a900460ff16611292576040517f08c379a000000000000000000000000000000000000000000000000000000000815260040161128990612ae9565b60405180910390fd5b61129c8484611dae565b6112db576040517f08c379a00000000000000000000000000000000000000000000000000000000081526004016112d290613339565b60405180910390fd5b5b600060016000868152602001908152602001600020600401905081156114735780805480602002602001604051908101604052809291908181526020016000905b8282101561146657838290600052602060002090600502016040518060a00160405290816000820154815260200160018201805461135a90612cab565b80601f016020809104026020016040519081016040528092919081815260200182805461138690612cab565b80156113d35780601f106113a8576101008083540402835291602001916113d3565b820191906000526020600020905b8154815290600101906020018083116113b657829003601f168201915b505050505081526020016002820160009054906101000a900473ffffffffffffffffffffffffffffffffffffffff1673ffffffffffffffffffffffffffffffffffffffff1673ffffffffffffffffffffffffffffffffffffffff168152602001600382015481526020016004820160009054906101000a900460ff1615151515815250508152602001906001019061131d565b5050505092505050611707565b6000805b82805490508110156114dc5782818154811061149657611495612b75565b5b906000526020600020906005020160040160009054906101000a900460ff16156114c95781806114c590613095565b9250505b80806114d490613095565b915050611477565b5060008167ffffffffffffffff8111156114f9576114f86122dc565b5b60405190808252806020026020018201604052801561153257816020015b61151f612230565b8152602001906001900390816115175790505b5090506000805b84805490508110156116fd5784818154811061155857611557612b75565b5b906000526020600020906005020160040160009054906101000a900460ff16156116ea5784818154811061158f5761158e612b75565b5b90600052602060002090600502016040518060a0016040529081600082015481526020016001820180546115c290612cab565b80601f01602080910402602001604051908101604052809291908181526020018280546115ee90612cab565b801561163b5780601f106116105761010080835404028352916020019161163b565b820191906000526020600020905b81548152906001019060200180831161161e57829003601f168201915b505050505081526020016002820160009054906101000a900473ffffffffffffffffffffffffffffffffffffffff1673ffffffffffffffffffffffffffffffffffffffff1673ffffffffffffffffffffffffffffffffffffffff168152602001600382015481526020016004820160009054906101000a900460ff1615151515815250508383806116cb90613095565b9450815181106116de576116dd612b75565b5b60200260200101819052505b80806116f590613095565b915050611539565b5081955050505050505b92915050565b8280600360003373ffffffffffffffffffffffffffffffffffffffff1673ffffffffffffffffffffffffffffffffffffffff168152602001908152602001600020541461178f576040517f08c379a0000000000000000000000000000000000000000000000000000000008152600401611786906133a5565b60405180910390fd5b6001600082815260200190815260200160002060010160009054906101000a900460ff166117f2576040517f08c379a00000000000000000000000000000000000000000000000000000000081526004016117e990613411565b60405180910390fd5b60008084815260200190815260200160002060010160009054906101000a900460ff16611854576040517f08c379a000000000000000000000000000000000000000000000000000000000815260040161184b90612ae9565b60405180910390fd5b8160016000868152602001908152602001600020600201600085815260200190815260200160002060006101000a81548160ff02191690831515021790555082847f97c940077a903c4d0e20ff2a0388da33cc4ebb34fe95214bd45cc55bf58d8e71846040516118c491906129b2565b60405180910390a350505050565b8280600260003373ffffffffffffffffffffffffffffffffffffffff1673ffffffffffffffffffffffffffffffffffffffff1681526020019081526020016000205414611954576040517f08c379a000000000000000000000000000000000000000000000000000000000815260040161194b90612a7d565b60405180910390fd5b60008082815260200190815260200160002060010160009054906101000a900460ff166119b6576040517f08c379a00000000000000000000000000000000000000000000000000000000081526004016119ad90612ae9565b60405180910390fd5b60016000868152602001908152602001600020600401805490508310611a11576040517f08c379a0000000000000000000000000000000000000000000000000000000008152600401611a0890612b55565b60405180910390fd5b6000600160008781526020019081526020016000206004018481548110611a3b57611a3a612b75565b5b906000526020600020906005020190503373ffffffffffffffffffffffffffffffffffffffff168160020160009054906101000a900473ffffffffffffffffffffffffffffffffffffffff1673ffffffffffffffffffffffffffffffffffffffff1614611add576040517f08c379a0000000000000000000000000000000000000000000000000000000008152600401611ad4906134a3565b60405180910390fd5b828160040160006101000a81548160ff02191690831515021790555084867f7cc38348a78a0a518f443d6adfa7e24e5b818125edd15f8398013ec08a0a93368686604051611b2c9291906127f4565b60405180910390a3505050505050565b60608180600360003373ffffffffffffffffffffffffffffffffffffffff1673ffffffffffffffffffffffffffffffffffffffff1681526020019081526020016000205414611bc0576040517f08c379a0000000000000000000000000000000000000000000000000000000008152600401611bb7906133a5565b60405180910390fd5b6001600082815260200190815260200160002060010160009054906101000a900460ff16611c23576040517f08c379a0000000000000000000000000000000000000000000000000000000008152600401611c1a90613411565b60405180910390fd5b60016000848152602001908152602001600020600401805480602002602001604051908101604052809291908181526020016000905b82821015611da257838290600052602060002090600502016040518060a001604052908160008201548152602001600182018054611c9690612cab565b80601f0160208091040260200160405190810160405280929190818152602001828054611cc290612cab565b8015611d0f5780601f10611ce457610100808354040283529160200191611d0f565b820191906000526020600020905b815481529060010190602001808311611cf257829003601f168201915b505050505081526020016002820160009054906101000a900473ffffffffffffffffffffffffffffffffffffffff1673ffffffffffffffffffffffffffffffffffffffff1673ffffffffffffffffffffffffffffffffffffffff168152602001600382015481526020016004820160009054906101000a900460ff16151515158152505081526020019060010190611c59565b50505050915050919050565b600060016000848152602001908152602001600020600201600083815260200190815260200160002060009054906101000a900460ff16905092915050565b60008180600260003373ffffffffffffffffffffffffffffffffffffffff1673ffffffffffffffffffffffffffffffffffffffff1681526020019081526020016000205414611e71576040517f08c379a0000000000000000000000000000000000000000000000000000000008152600401611e6890612a7d565b60405180910390fd5b60008082815260200190815260200160002060010160009054906101000a900460ff16611ed3576040517f08c379a0000000000000000000000000000000000000000000000000000000008152600401611eca90612ae9565b60405180910390fd5b611edc83610c28565b915050919050565b8280600360003373ffffffffffffffffffffffffffffffffffffffff1673ffffffffffffffffffffffffffffffffffffffff1681526020019081526020016000205414611f66576040517f08c379a0000000000000000000000000000000000000000000000000000000008152600401611f5d906133a5565b60405180910390fd5b6001600082815260200190815260200160002060010160009054906101000a900460ff16611fc9576040517f08c379a0000000000000000000000000000000000000000000000000000000008152600401611fc090613411565b60405180910390fd5b60018210158015611fdb575060058211155b61201a576040517f08c379a00000000000000000000000000000000000000000000000000000000081526004016120119061350f565b60405180910390fd5b60008084815260200190815260200160002060010160009054906101000a900460ff1661207c576040517f08c379a000000000000000000000000000000000000000000000000000000000815260040161207390612ae9565b60405180910390fd5b60016000858152602001908152602001600020600301600084815260200190815260200160002060009054906101000a900460ff16156121755760008060008581526020019081526020016000206003019050600081600183805490506120e3919061352f565b815481106120f4576120f3612b75565b5b90600052602060002001549050838260018480549050612114919061352f565b8154811061212557612124612b75565b5b906000526020600020018190555084867f759fb1975b5c4ab67d802a1828e047a1ce4f5e09ec3b233434ca0fef4d6c19d88387604051612166929190613563565b60405180910390a3505061222a565b6001806000868152602001908152602001600020600301600085815260200190815260200160002060006101000a81548160ff02191690831515021790555060008084815260200190815260200160002060030182908060018154018082558091505060019003906000526020600020016000909190919091505582847f3eaeb324d38c9995652f19f344a0f85ee92a15d8b156a3c084e43b37a932d40784604051612221919061279d565b60405180910390a35b50505050565b6040518060a001604052806000815260200160608152602001600073ffffffffffffffffffffffffffffffffffffffff168152602001600081526020016000151581525090565b6000604051905090565b600080fd5b600080fd5b6000819050919050565b61229e8161228b565b81146122a957600080fd5b50565b6000813590506122bb81612295565b92915050565b600080fd5b600080fd5b6000601f19601f8301169050919050565b7f4e487b7100000000000000000000000000000000000000000000000000000000600052604160045260246000fd5b612314826122cb565b810181811067ffffffffffffffff82111715612333576123326122dc565b5b80604052505050565b6000612346612277565b9050612352828261230b565b919050565b600067ffffffffffffffff821115612372576123716122dc565b5b61237b826122cb565b9050602081019050919050565b82818337600083830152505050565b60006123aa6123a584612357565b61233c565b9050828152602081018484840111156123c6576123c56122c6565b5b6123d1848285612388565b509392505050565b600082601f8301126123ee576123ed6122c1565b5b81356123fe848260208601612397565b91505092915050565b6000806000806080858703121561242157612420612281565b5b600061242f878288016122ac565b9450506020612440878288016122ac565b9350506040612451878288016122ac565b925050606085013567ffffffffffffffff81111561247257612471612286565b5b61247e878288016123d9565b91505092959194509250565b600080600080608085870312156124a4576124a3612281565b5b60006124b2878288016122ac565b94505060206124c3878288016122ac565b93505060406124d4878288016122ac565b92505060606124e5878288016122ac565b91505092959194509250565b600081519050919050565b600082825260208201905092915050565b6000819050602082019050919050565b6125268161228b565b82525050565b600081519050919050565b600082825260208201905092915050565b60005b8381101561256657808201518184015260208101905061254b565b60008484015250505050565b600061257d8261252c565b6125878185612537565b9350612597818560208601612548565b6125a0816122cb565b840191505092915050565b600073ffffffffffffffffffffffffffffffffffffffff82169050919050565b60006125d6826125ab565b9050919050565b6125e6816125cb565b82525050565b60008115159050919050565b612601816125ec565b82525050565b600060a08301600083015161261f600086018261251d565b50602083015184820360208601526126378282612572565b915050604083015161264c60408601826125dd565b50606083015161265f606086018261251d565b50608083015161267260808601826125f8565b508091505092915050565b60006126898383612607565b905092915050565b6000602082019050919050565b60006126a9826124f1565b6126b381856124fc565b9350836020820285016126c58561250d565b8060005b8581101561270157848403895281516126e2858261267d565b94506126ed83612691565b925060208a019950506001810190506126c9565b50829750879550505050505092915050565b6000602082019050818103600083015261272d818461269e565b905092915050565b61273e816125cb565b811461274957600080fd5b50565b60008135905061275b81612735565b92915050565b60006020828403121561277757612776612281565b5b60006127858482850161274c565b91505092915050565b6127978161228b565b82525050565b60006020820190506127b2600083018461278e565b92915050565b6000602082840312156127ce576127cd612281565b5b60006127dc848285016122ac565b91505092915050565b6127ee816125ec565b82525050565b6000604082019050612809600083018561278e565b61281660208301846127e5565b9392505050565b60008060006060848603121561283657612835612281565b5b6000612844868287016122ac565b9350506020612855868287016122ac565b925050604084013567ffffffffffffffff81111561287657612875612286565b5b612882868287016123d9565b9150509250925092565b600080604083850312156128a3576128a2612281565b5b60006128b1858286016122ac565b92505060206128c2858286016122ac565b9150509250929050565b6128d5816125ec565b81146128e057600080fd5b50565b6000813590506128f2816128cc565b92915050565b60008060006060848603121561291157612910612281565b5b600061291f868287016122ac565b9350506020612930868287016122ac565b9250506040612941868287016128e3565b9150509250925092565b6000806000806080858703121561296557612964612281565b5b6000612973878288016122ac565b9450506020612984878288016122ac565b9350506040612995878288016122ac565b92505060606129a6878288016128e3565b91505092959194509250565b60006020820190506129c760008301846127e5565b92915050565b6000806000606084860312156129e6576129e5612281565b5b60006129f4868287016122ac565b9350506020612a05868287016122ac565b9250506040612a16868287016122ac565b9150509250925092565b600082825260208201905092915050565b7f4e6f7420617574686f72697a656420646f63746f720000000000000000000000600082015250565b6000612a67601583612a20565b9150612a7282612a31565b602082019050919050565b60006020820190508181036000830152612a9681612a5a565b9050919050565b7f446f63746f72206e6f7420726567697374657265640000000000000000000000600082015250565b6000612ad3601583612a20565b9150612ade82612a9d565b602082019050919050565b60006020820190508181036000830152612b0281612ac6565b9050919050565b7f496e76616c696420696e64657800000000000000000000000000000000000000600082015250565b6000612b3f600d83612a20565b9150612b4a82612b09565b602082019050919050565b60006020820190508181036000830152612b6e81612b32565b9050919050565b7f4e487b7100000000000000000000000000000000000000000000000000000000600052603260045260246000fd5b7f4f6e6c79206f726967696e616c20646f63746f722063616e2075706461746500600082015250565b6000612bda601f83612a20565b9150612be582612ba4565b602082019050919050565b60006020820190508181036000830152612c0981612bcd565b9050919050565b7f5265636f7264206973206e6f742076697369626c650000000000000000000000600082015250565b6000612c46601583612a20565b9150612c5182612c10565b602082019050919050565b60006020820190508181036000830152612c7581612c39565b9050919050565b7f4e487b7100000000000000000000000000000000000000000000000000000000600052602260045260246000fd5b60006002820490506001821680612cc357607f821691505b602082108103612cd657612cd5612c7c565b5b50919050565b60008190508160005260206000209050919050565b60006020601f8301049050919050565b600082821b905092915050565b600060088302612d3e7fffffffffffffffffffffffffffffffffffffffffffffffffffffffffffffffff82612d01565b612d488683612d01565b95508019841693508086168417925050509392505050565b6000819050919050565b6000612d85612d80612d7b8461228b565b612d60565b61228b565b9050919050565b6000819050919050565b612d9f83612d6a565b612db3612dab82612d8c565b848454612d0e565b825550505050565b600090565b612dc8612dbb565b612dd3818484612d96565b505050565b5b81811015612df757612dec600082612dc0565b600181019050612dd9565b5050565b601f821115612e3c57612e0d81612cdc565b612e1684612cf1565b81016020851015612e25578190505b612e39612e3185612cf1565b830182612dd8565b50505b505050565b600082821c905092915050565b6000612e5f60001984600802612e41565b1980831691505092915050565b6000612e788383612e4e565b9150826002028217905092915050565b612e918261252c565b67ffffffffffffffff811115612eaa57612ea96122dc565b5b612eb48254612cab565b612ebf828285612dfb565b600060209050601f831160018114612ef25760008415612ee0578287015190505b612eea8582612e6c565b865550612f52565b601f198416612f0086612cdc565b60005b82811015612f2857848901518255600182019150602085019450602081019050612f03565b86831015612f455784890151612f41601f891682612e4e565b8355505b6001600288020188555050505b505050505050565b7f436f6e73656e74206e6f7420676976656e000000000000000000000000000000600082015250565b6000612f90601183612a20565b9150612f9b82612f5a565b602082019050919050565b60006020820190508181036000830152612fbf81612f83565b9050919050565b7f5374617274206f7574206f662072616e67650000000000000000000000000000600082015250565b6000612ffc601283612a20565b915061300782612fc6565b602082019050919050565b6000602082019050818103600083015261302b81612fef565b9050919050565b7f4e487b7100000000000000000000000000000000000000000000000000000000600052601160045260246000fd5b600061306c8261228b565b91506130778361228b565b925082820190508082111561308f5761308e613032565b5b92915050565b60006130a08261228b565b91507fffffffffffffffffffffffffffffffffffffffffffffffffffffffffffffffff82036130d2576130d1613032565b5b600182019050919050565b7f416c7265616479207265676973746572656420617320646f63746f7200000000600082015250565b6000613113601c83612a20565b915061311e826130dd565b602082019050919050565b6000602082019050818103600083015261314281613106565b9050919050565b7f446f63746f7220494420616c72656164792074616b656e000000000000000000600082015250565b600061317f601783612a20565b915061318a82613149565b602082019050919050565b600060208201905081810360008301526131ae81613172565b9050919050565b7f4e487b7100000000000000000000000000000000000000000000000000000000600052601260045260246000fd5b60006131ef8261228b565b91506131fa8361228b565b92508261320a576132096131b5565b5b828204905092915050565b7f416c726561647920726567697374657265642061732070617469656e74000000600082015250565b600061324b601d83612a20565b915061325682613215565b602082019050919050565b6000602082019050818103600083015261327a8161323e565b9050919050565b7f50617469656e7420494420616c72656164792074616b656e0000000000000000600082015250565b60006132b7601883612a20565b91506132c282613281565b602082019050919050565b600060208201905081810360008301526132e6816132aa565b9050919050565b7f4e6f20636f6e73656e7420676976656e00000000000000000000000000000000600082015250565b6000613323601083612a20565b915061332e826132ed565b602082019050919050565b6000602082019050818103600083015261335281613316565b9050919050565b7f4e6f7420617574686f72697a65642070617469656e7400000000000000000000600082015250565b600061338f601683612a20565b915061339a82613359565b602082019050919050565b600060208201905081810360008301526133be81613382565b9050919050565b7f50617469656e74206e6f74207265676973746572656400000000000000000000600082015250565b60006133fb601683612a20565b9150613406826133c5565b602082019050919050565b6000602082019050818103600083015261342a816133ee565b9050919050565b7f4f6e6c79206f726967696e616c20646f63746f722063616e206368616e67652060008201527f7669736962696c69747900000000000000000000000000000000000000000000602082015250565b600061348d602a83612a20565b915061349882613431565b604082019050919050565b600060208201905081810360008301526134bc81613480565b9050919050565b7f526174696e67206d75737420626520312d350000000000000000000000000000600082015250565b60006134f9601283612a20565b9150613504826134c3565b602082019050919050565b60006020820190508181036000830152613528816134ec565b9050919050565b600061353a8261228b565b91506135458361228b565b925082820390508181111561355d5761355c613032565b5b92915050565b6000604082019050613578600083018561278e565b613585602083018461278e565b939250505056fea2646970667358221220a30363603b2d4587de0bb7005c7b4fe83c1d17696c7cdeeddae2609e17c9c64464736f6c63430008130033",
  "immutableReferences": {},
  "source": "// SPDX-License-Identifier: MIT\r\npragma solidity ^0.8.19;\r\n\r\n\r\n\r\ncontract HealthRecord{\r\n    struct Record {\r\n        uint patientId;\r\n        string data;\r\n        address addedBy;\r\n        uint timestamp;\r\n        bool isVisible;\r\n    }\r\n\r\n    struct Doctor {\r\n        uint doctorId;\r\n        bool isRegistered;\r\n        mapping(uint => bool) patientConsent;\r\n        uint[] ratings;\r\n    }\r\n\r\n    struct Patient {\r\n        uint patientId;\r\n        bool isRegistered;\r\n        mapping(uint => bool) doctorConsent;\r\n        mapping(uint => bool) hasRated;\r\n        Record[] records;\r\n    }\r\n\r\n    mapping(uint => Doctor) public doctors;\r\n    mapping(uint => Patient) public patients;\r\n\r\n    mapping(address => uint) public doctorAddresses;\r\n    mapping(address => uint) public patientAddresses;\r\n\r\n    mapping(uint => bool) private doctorIds;\r\n    mapping(uint => bool) private patientIds;\r\n\r\n    event DoctorAssigned(uint indexed doctorId);\r\n    event DoctorRemoved(uint indexed doctorId);\r\n    event PatientRegistered(uint indexed patientId);\r\n    event PatientRemoved(uint indexed patientId);\r\n    event RecordAdded(uint indexed doctorId, uint indexed patientId);\r\n    event RecordUpdated(uint indexed doctorId, uint indexed patientId, uint index);\r\n    event RatingGiven(uint indexed patientId, uint indexed doctorId, uint rating);\r\n    event RatingUpdated(uint indexed patientId, uint indexed doctorId, uint oldRating, uint newRating);\r\n    event ConsentGiven(uint indexed patientId, uint indexed doctorId, bool consent);\r\n    event RecordVisibilityChanged(uint indexed patientId, uint indexed doctorId, uint index, bool isVisible);\r\n\r\n    modifier onlyDoctor(uint doctorId) {\r\n        require(doctorAddresses[msg.sender] == doctorId, \"Not authorized doctor\");\r\n        require(doctors[doctorId].isRegistered, \"Doctor not registered\");\r\n        _;\r\n    }\r\n\r\n    modifier onlyPatient(uint patientId) {\r\n        require(patientAddresses[msg.sender] == patientId, \"Not authorized patient\");\r\n        require(patients[patientId].isRegistered, \"Patient not registered\");\r\n        _;\r\n    }\r\n\r\n    // =========================\r\n    // Registration\r\n    // =========================\r\n\r\n    function registerPatient(uint patientId) public {\r\n        require(patientAddresses[msg.sender] == 0, \"Already registered as patient\");\r\n        require(!patientIds[patientId], \"Patient ID already taken\");\r\n\r\n        patients[patientId].patientId = patientId;\r\n        patients[patientId].isRegistered = true;\r\n        patientAddresses[msg.sender] = patientId;\r\n        patientIds[patientId] = true;\r\n\r\n        emit PatientRegistered(patientId);\r\n    }\r\n\r\n    function registerDoctor(uint doctorId) public {\r\n        require(doctorAddresses[msg.sender] == 0, \"Already registered as doctor\");\r\n        require(!doctorIds[doctorId], \"Doctor ID already taken\");\r\n\r\n        doctors[doctorId].doctorId = doctorId;\r\n        doctors[doctorId].isRegistered = true;\r\n        doctorAddresses[msg.sender] = doctorId;\r\n        doctorIds[doctorId] = true;\r\n\r\n        emit DoctorAssigned(doctorId);\r\n    }\r\n\r\n    \r\n    // =========================\r\n    // Consent\r\n    // =========================\r\n\r\n    function giveConsent(uint patientId, uint doctorId, bool consent) public onlyPatient(patientId) {\r\n        require(doctors[doctorId].isRegistered, \"Doctor not registered\");\r\n        patients[patientId].doctorConsent[doctorId] = consent;\r\n        emit ConsentGiven(patientId, doctorId, consent);\r\n    }\r\n\r\n    function hasGivenConsent(uint patientId, uint doctorId) public view returns (bool) {\r\n        return patients[patientId].doctorConsent[doctorId];\r\n    }\r\n\r\n    // =========================\r\n    // Rating\r\n    // =========================\r\n\r\n    function giveRating(uint patientId, uint doctorId, uint rating) public onlyPatient(patientId) {\r\n        require(rating >= 1 && rating <= 5, \"Rating must be 1-5\");\r\n        require(doctors[doctorId].isRegistered, \"Doctor not registered\");\r\n\r\n        if (patients[patientId].hasRated[doctorId]) {\r\n            uint[] storage ratings = doctors[doctorId].ratings;\r\n            uint oldRating = ratings[ratings.length - 1];\r\n            ratings[ratings.length - 1] = rating;\r\n            emit RatingUpdated(patientId, doctorId, oldRating, rating);\r\n        } else {\r\n            patients[patientId].hasRated[doctorId] = true;\r\n            doctors[doctorId].ratings.push(rating);\r\n            emit RatingGiven(patientId, doctorId, rating);\r\n        }\r\n    }\r\n\r\n    function getMyRating(uint doctorId) public view onlyDoctor(doctorId) returns (uint) {\r\n        return getDoctorRating(doctorId);\r\n    }\r\n\r\n    function getDoctorRating(uint doctorId) public view returns (uint average) {\r\n        require(doctors[doctorId].isRegistered, \"Doctor not registered\");\r\n        uint[] storage ratings = doctors[doctorId].ratings;\r\n        if (ratings.length == 0) return 0;\r\n\r\n        uint sum = 0;\r\n        for (uint i = 0; i < ratings.length; i++) {\r\n            sum += ratings[i];\r\n        }\r\n        return sum / ratings.length;\r\n    }\r\n\r\n    // =========================\r\n    // Record Management\r\n    // =========================\r\n\r\n    function addRecord(uint patientId, uint doctorId, string memory data) public onlyDoctor(doctorId) {\r\n        require(hasGivenConsent(patientId, doctorId), \"Consent not given\");\r\n\r\n        Record memory newRecord = Record({\r\n            patientId: patientId,\r\n            data: data,\r\n            addedBy: msg.sender,\r\n            timestamp: block.timestamp,\r\n            isVisible: true\r\n        });\r\n\r\n        patients[patientId].records.push(newRecord);\r\n        emit RecordAdded(doctorId, patientId);\r\n    }\r\n\r\n    function updateRecord(uint patientId, uint doctorId, uint index, string memory data) public onlyDoctor(doctorId) {\r\n        require(index < patients[patientId].records.length, \"Invalid index\");\r\n        Record storage record = patients[patientId].records[index];\r\n        require(record.addedBy == msg.sender, \"Only original doctor can update\");\r\n        require(record.isVisible, \"Record is not visible\");\r\n\r\n        record.data = data;\r\n        record.timestamp = block.timestamp;\r\n\r\n        emit RecordUpdated(doctorId, patientId, index);\r\n    }\r\n\r\n    function toggleRecordVisibility(uint patientId, uint doctorId, uint index, bool visible) public onlyDoctor(doctorId) {\r\n        require(index < patients[patientId].records.length, \"Invalid index\");\r\n        Record storage record = patients[patientId].records[index];\r\n        require(record.addedBy == msg.sender, \"Only original doctor can change visibility\");\r\n\r\n        record.isVisible = visible;\r\n        emit RecordVisibilityChanged(patientId, doctorId, index, visible);\r\n    }\r\n\r\n    function getRecords(uint patientId, uint doctorId) public view returns (Record[] memory) {\r\n    bool isPatient = (patientAddresses[msg.sender] == patientId);\r\n\r\n    if (!isPatient) {\r\n        require(doctors[doctorId].isRegistered, \"Doctor not registered\");\r\n        require(hasGivenConsent(patientId, doctorId), \"No consent given\");\r\n    }\r\n\r\n    Record[] storage full = patients[patientId].records;\r\n\r\n    // If caller is the patient, return all records (including invisible)\r\n    if (isPatient) {\r\n        return full;\r\n    }\r\n\r\n    // Else (doctor), return only visible records\r\n    uint count = 0;\r\n    for (uint i = 0; i < full.length; i++) {\r\n        if (full[i].isVisible) count++;\r\n    }\r\n\r\n    Record[] memory filtered = new Record[](count);\r\n    uint idx = 0;\r\n    for (uint i = 0; i < full.length; i++) {\r\n        if (full[i].isVisible) {\r\n            filtered[idx++] = full[i];\r\n        }\r\n    }\r\n\r\n    return filtered;\r\n}\r\n\r\n    function getMyRecords(uint patientId) public view onlyPatient(patientId) returns (Record[] memory) {\r\n        return patients[patientId].records;\r\n    }\r\n\r\n    function getRecordsPaginated(uint patientId, uint doctorId, uint start, uint limit) public view returns (Record[] memory) {\r\n        require(doctors[doctorId].isRegistered, \"Doctor not registered\");\r\n        require(hasGivenConsent(patientId, doctorId), \"Consent not given\");\r\n\r\n        Record[] storage all = patients[patientId].records;\r\n        require(start < all.length, \"Start out of range\");\r\n\r\n        uint end = start + limit > all.length ? all.length : start + limit;\r\n        uint visibleCount = 0;\r\n\r\n        for (uint i = start; i < end; i++) {\r\n            if (all[i].isVisible) visibleCount++;\r\n        }\r\n\r\n        Record[] memory paginated = new Record[](visibleCount);\r\n        uint idx = 0;\r\n        for (uint i = start; i < end; i++) {\r\n            if (all[i].isVisible) {\r\n                paginated[idx++] = all[i];\r\n            }\r\n        }\r\n        return paginated;\r\n    }\r\n}\r\n",
  "sourcePath": "C:\\Users\\NITHIKA BALAJI\\Blockchain_Healthcare\\healthcare-dapp-truffle\\contracts\\HealthRecord.sol",
  "compiler": {
    "name": "solc",
    "version": "0.8.19+commit.7dd6d404.Emscripten.clang"
  },
  "schemaVersion": "3.4.16",
  "updatedAt": "2025-04-22T15:44:09.521Z",
  "networkType": "ethereum",
  "devdoc": {
    "kind": "dev",
    "methods": {},
    "version": 1
  },
  "userdoc": {
    "kind": "user",
    "methods": {},
    "version": 1
  }
}